{
  "_format": "hh-sol-artifact-1",
  "contractName": "NameRegistry",
  "sourceName": "contracts/NameRegistry.sol",
  "abi": [
    {
      "anonymous": false,
      "inputs": [
        {
          "indexed": false,
          "internalType": "string",
          "name": "name",
          "type": "string"
        },
        {
          "indexed": false,
          "internalType": "address",
          "name": "owner",
          "type": "address"
        },
        {
          "indexed": false,
          "internalType": "uint256",
          "name": "registrationDate",
          "type": "uint256"
        },
        {
          "indexed": false,
          "internalType": "uint256",
          "name": "expiry",
          "type": "uint256"
        }
      ],
      "name": "NameRegistered",
      "type": "event"
    },
    {
      "inputs": [
        {
          "internalType": "string",
          "name": "name",
          "type": "string"
        }
      ],
      "name": "getExpiry",
      "outputs": [
        {
          "internalType": "uint256",
          "name": "",
          "type": "uint256"
        }
      ],
      "stateMutability": "view",
      "type": "function"
    },
    {
      "inputs": [
        {
          "internalType": "address",
          "name": "user",
          "type": "address"
        }
      ],
      "name": "getNamesByOwner",
      "outputs": [
        {
          "internalType": "string[]",
          "name": "",
          "type": "string[]"
        }
      ],
      "stateMutability": "view",
      "type": "function"
    },
    {
      "inputs": [
        {
          "internalType": "string",
          "name": "name",
          "type": "string"
        }
      ],
      "name": "getOwner",
      "outputs": [
        {
          "internalType": "address",
          "name": "",
          "type": "address"
        }
      ],
      "stateMutability": "view",
      "type": "function"
    },
    {
      "inputs": [
        {
          "internalType": "string",
          "name": "name",
          "type": "string"
        }
      ],
      "name": "getRegistrationDate",
      "outputs": [
        {
          "internalType": "uint256",
          "name": "",
          "type": "uint256"
        }
      ],
      "stateMutability": "view",
      "type": "function"
    },
    {
      "inputs": [
        {
          "internalType": "string",
          "name": "name",
          "type": "string"
        }
      ],
      "name": "isAvailable",
      "outputs": [
        {
          "internalType": "bool",
          "name": "",
          "type": "bool"
        }
      ],
      "stateMutability": "view",
      "type": "function"
    },
    {
      "inputs": [
        {
          "internalType": "string",
          "name": "",
          "type": "string"
        }
      ],
      "name": "names",
      "outputs": [
        {
          "internalType": "address",
          "name": "owner",
          "type": "address"
        },
        {
          "internalType": "uint256",
          "name": "registrationDate",
          "type": "uint256"
        },
        {
          "internalType": "uint256",
          "name": "expiry",
          "type": "uint256"
        }
      ],
      "stateMutability": "view",
      "type": "function"
    },
    {
      "inputs": [
        {
          "internalType": "address",
          "name": "",
          "type": "address"
        },
        {
          "internalType": "uint256",
          "name": "",
          "type": "uint256"
        }
      ],
      "name": "ownerNames",
      "outputs": [
        {
          "internalType": "string",
          "name": "",
          "type": "string"
        }
      ],
      "stateMutability": "view",
      "type": "function"
    },
    {
      "inputs": [
        {
          "internalType": "string",
          "name": "name",
          "type": "string"
        },
        {
          "internalType": "uint256",
          "name": "durationYears",
          "type": "uint256"
        }
      ],
      "name": "register",
      "outputs": [],
      "stateMutability": "payable",
      "type": "function"
    },
    {
      "inputs": [
        {
          "internalType": "string",
          "name": "name",
          "type": "string"
        },
        {
          "internalType": "uint256",
          "name": "durationYears",
          "type": "uint256"
        }
      ],
      "name": "renew",
      "outputs": [],
      "stateMutability": "payable",
      "type": "function"
    },
    {
      "inputs": [
        {
          "internalType": "string",
          "name": "name",
          "type": "string"
        },
        {
          "internalType": "address",
          "name": "newOwner",
          "type": "address"
        }
      ],
      "name": "transfer",
      "outputs": [],
      "stateMutability": "nonpayable",
      "type": "function"
    }
  ],
  "bytecode": "0x608060405234801561001057600080fd5b50611f9f806100206000396000f3fe6080604052600436106100915760003560e01c8063965306aa11610059578063965306aa146101c9578063acf1a84114610206578063ea87152b14610222578063ef9b307f1461023e578063fbf58b3e1461027b57610091565b806310f6fdfc14610096578063146c42a2146100d35780634aaf4a121461011057806375a765ac1461014d578063822fbf581461018a575b600080fd5b3480156100a257600080fd5b506100bd60048036038101906100b89190610f18565b6102a4565b6040516100ca9190610f7e565b60405180910390f35b3480156100df57600080fd5b506100fa60048036038101906100f59190611023565b6102d1565b60405161010791906110f3565b60405180910390f35b34801561011c57600080fd5b5061013760048036038101906101329190610f18565b61038a565b6040516101449190611124565b60405180910390f35b34801561015957600080fd5b50610174600480360381019061016f919061113f565b6103d7565b6040516101819190611278565b60405180910390f35b34801561019657600080fd5b506101b160048036038101906101ac91906113ca565b6104ef565b6040516101c093929190611413565b60405180910390f35b3480156101d557600080fd5b506101f060048036038101906101eb9190610f18565b61054f565b6040516101fd9190611465565b60405180910390f35b610220600480360381019061021b9190611480565b6105f8565b005b61023c60048036038101906102379190611480565b6107be565b005b34801561024a57600080fd5b5061026560048036038101906102609190610f18565b610ad2565b6040516102729190610f7e565b60405180910390f35b34801561028757600080fd5b506102a2600480360381019061029d91906114e0565b610aff565b005b60008083836040516102b7929190611570565b908152602001604051809103902060010154905092915050565b600160205281600052604060002081815481106102ed57600080fd5b90600052602060002001600091509150508054610309906115b8565b80601f0160208091040260200160405190810160405280929190818152602001828054610335906115b8565b80156103825780601f1061035757610100808354040283529160200191610382565b820191906000526020600020905b81548152906001019060200180831161036557829003601f168201915b505050505081565b600080838360405161039d929190611570565b908152602001604051809103902060000160009054906101000a900473ffffffffffffffffffffffffffffffffffffffff16905092915050565b6060600160008373ffffffffffffffffffffffffffffffffffffffff1673ffffffffffffffffffffffffffffffffffffffff168152602001908152602001600020805480602002602001604051908101604052809291908181526020016000905b828210156104e4578382906000526020600020018054610457906115b8565b80601f0160208091040260200160405190810160405280929190818152602001828054610483906115b8565b80156104d05780601f106104a5576101008083540402835291602001916104d0565b820191906000526020600020905b8154815290600101906020018083116104b357829003601f168201915b505050505081526020019060010190610438565b505050509050919050565b6000818051602081018201805184825260208301602085012081835280955050505050506000915090508060000160009054906101000a900473ffffffffffffffffffffffffffffffffffffffff16908060010154908060020154905083565b60008073ffffffffffffffffffffffffffffffffffffffff166000848460405161057a929190611570565b908152602001604051809103902060000160009054906101000a900473ffffffffffffffffffffffffffffffffffffffff1673ffffffffffffffffffffffffffffffffffffffff1614806105f05750600083836040516105db929190611570565b90815260200160405180910390206002015442115b905092915050565b3373ffffffffffffffffffffffffffffffffffffffff1660008484604051610621929190611570565b908152602001604051809103902060000160009054906101000a900473ffffffffffffffffffffffffffffffffffffffff1673ffffffffffffffffffffffffffffffffffffffff16146106a9576040517f08c379a00000000000000000000000000000000000000000000000000000000081526004016106a090611635565b60405180910390fd5b600083836040516106bb929190611570565b90815260200160405180910390206002015442111561070f576040517f08c379a0000000000000000000000000000000000000000000000000000000008152600401610706906116a1565b60405180910390fd5b60006301e133808261072191906116f0565b90506000662386f26fc100008361073891906116f0565b90508034101561077d576040517f08c379a00000000000000000000000000000000000000000000000000000000081526004016107749061177e565b60405180910390fd5b8160008686604051610790929190611570565b908152602001604051809103902060020160008282546107b0919061179e565b925050819055505050505050565b60008383905011610804576040517f08c379a00000000000000000000000000000000000000000000000000000000081526004016107fb9061181e565b60405180910390fd5b600073ffffffffffffffffffffffffffffffffffffffff166000848460405161082e929190611570565b908152602001604051809103902060000160009054906101000a900473ffffffffffffffffffffffffffffffffffffffff1673ffffffffffffffffffffffffffffffffffffffff1614806108a457506000838360405161088f929190611570565b90815260200160405180910390206002015442115b6108e3576040517f08c379a00000000000000000000000000000000000000000000000000000000081526004016108da9061188a565b60405180910390fd5b60006301e13380826108f591906116f0565b9050662386f26fc100008261090a91906116f0565b34101561094c576040517f08c379a00000000000000000000000000000000000000000000000000000000081526004016109439061177e565b60405180910390fd5b60004290506000828261095f919061179e565b905060405180606001604052803373ffffffffffffffffffffffffffffffffffffffff16815260200183815260200182815250600087876040516109a4929190611570565b908152602001604051809103902060008201518160000160006101000a81548173ffffffffffffffffffffffffffffffffffffffff021916908373ffffffffffffffffffffffffffffffffffffffff1602179055506020820151816001015560408201518160020155905050600160003373ffffffffffffffffffffffffffffffffffffffff1673ffffffffffffffffffffffffffffffffffffffff168152602001908152602001600020868690918060018154018082558091505060019003906000526020600020016000909192909192909192909192509182610a8a929190611a61565b507ff7ab1b84e0afb8ee4014a7fc4343c995a6eed5d4a096d59940f33ef56efc58518686338585604051610ac2959493929190611b5e565b60405180910390a1505050505050565b6000808383604051610ae5929190611570565b908152602001604051809103902060020154905092915050565b3373ffffffffffffffffffffffffffffffffffffffff1660008484604051610b28929190611570565b908152602001604051809103902060000160009054906101000a900473ffffffffffffffffffffffffffffffffffffffff1673ffffffffffffffffffffffffffffffffffffffff1614610bb0576040517f08c379a0000000000000000000000000000000000000000000000000000000008152600401610ba790611bf8565b60405180910390fd5b600073ffffffffffffffffffffffffffffffffffffffff168173ffffffffffffffffffffffffffffffffffffffff1603610c1f576040517f08c379a0000000000000000000000000000000000000000000000000000000008152600401610c1690611c64565b60405180910390fd5b6000600160003373ffffffffffffffffffffffffffffffffffffffff1673ffffffffffffffffffffffffffffffffffffffff168152602001908152602001600020905060005b8180549050811015610d5e578484604051610c81929190611cb4565b6040518091039020828281548110610c9c57610c9b611ccd565b5b90600052602060002001604051610cb39190611d94565b604051809103902003610d4b578160018380549050610cd29190611dab565b81548110610ce357610ce2611ccd565b5b90600052602060002001828281548110610d0057610cff611ccd565b5b906000526020600020019081610d169190611e0a565b5081805480610d2857610d27611ef2565b5b600190038181906000526020600020016000610d449190610e42565b9055610d5e565b8080610d5690611f21565b915050610c65565b50600160008373ffffffffffffffffffffffffffffffffffffffff1673ffffffffffffffffffffffffffffffffffffffff168152602001908152602001600020848490918060018154018082558091505060019003906000526020600020016000909192909192909192909192509182610dd9929190611a61565b508160008585604051610ded929190611570565b908152602001604051809103902060000160006101000a81548173ffffffffffffffffffffffffffffffffffffffff021916908373ffffffffffffffffffffffffffffffffffffffff16021790555050505050565b508054610e4e906115b8565b6000825580601f10610e605750610e7f565b601f016020900490600052602060002090810190610e7e9190610e82565b5b50565b5b80821115610e9b576000816000905550600101610e83565b5090565b6000604051905090565b600080fd5b600080fd5b600080fd5b600080fd5b600080fd5b60008083601f840112610ed857610ed7610eb3565b5b8235905067ffffffffffffffff811115610ef557610ef4610eb8565b5b602083019150836001820283011115610f1157610f10610ebd565b5b9250929050565b60008060208385031215610f2f57610f2e610ea9565b5b600083013567ffffffffffffffff811115610f4d57610f4c610eae565b5b610f5985828601610ec2565b92509250509250929050565b6000819050919050565b610f7881610f65565b82525050565b6000602082019050610f936000830184610f6f565b92915050565b600073ffffffffffffffffffffffffffffffffffffffff82169050919050565b6000610fc482610f99565b9050919050565b610fd481610fb9565b8114610fdf57600080fd5b50565b600081359050610ff181610fcb565b92915050565b61100081610f65565b811461100b57600080fd5b50565b60008135905061101d81610ff7565b92915050565b6000806040838503121561103a57611039610ea9565b5b600061104885828601610fe2565b92505060206110598582860161100e565b9150509250929050565b600081519050919050565b600082825260208201905092915050565b60005b8381101561109d578082015181840152602081019050611082565b60008484015250505050565b6000601f19601f8301169050919050565b60006110c582611063565b6110cf818561106e565b93506110df81856020860161107f565b6110e8816110a9565b840191505092915050565b6000602082019050818103600083015261110d81846110ba565b905092915050565b61111e81610fb9565b82525050565b60006020820190506111396000830184611115565b92915050565b60006020828403121561115557611154610ea9565b5b600061116384828501610fe2565b91505092915050565b600081519050919050565b600082825260208201905092915050565b6000819050602082019050919050565b600082825260208201905092915050565b60006111b482611063565b6111be8185611198565b93506111ce81856020860161107f565b6111d7816110a9565b840191505092915050565b60006111ee83836111a9565b905092915050565b6000602082019050919050565b600061120e8261116c565b6112188185611177565b93508360208202850161122a85611188565b8060005b85811015611266578484038952815161124785826111e2565b9450611252836111f6565b925060208a0199505060018101905061122e565b50829750879550505050505092915050565b600060208201905081810360008301526112928184611203565b905092915050565b600080fd5b7f4e487b7100000000000000000000000000000000000000000000000000000000600052604160045260246000fd5b6112d7826110a9565b810181811067ffffffffffffffff821117156112f6576112f561129f565b5b80604052505050565b6000611309610e9f565b905061131582826112ce565b919050565b600067ffffffffffffffff8211156113355761133461129f565b5b61133e826110a9565b9050602081019050919050565b82818337600083830152505050565b600061136d6113688461131a565b6112ff565b9050828152602081018484840111156113895761138861129a565b5b61139484828561134b565b509392505050565b600082601f8301126113b1576113b0610eb3565b5b81356113c184826020860161135a565b91505092915050565b6000602082840312156113e0576113df610ea9565b5b600082013567ffffffffffffffff8111156113fe576113fd610eae565b5b61140a8482850161139c565b91505092915050565b60006060820190506114286000830186611115565b6114356020830185610f6f565b6114426040830184610f6f565b949350505050565b60008115159050919050565b61145f8161144a565b82525050565b600060208201905061147a6000830184611456565b92915050565b60008060006040848603121561149957611498610ea9565b5b600084013567ffffffffffffffff8111156114b7576114b6610eae565b5b6114c386828701610ec2565b935093505060206114d68682870161100e565b9150509250925092565b6000806000604084860312156114f9576114f8610ea9565b5b600084013567ffffffffffffffff81111561151757611516610eae565b5b61152386828701610ec2565b9350935050602061153686828701610fe2565b9150509250925092565b600081905092915050565b60006115578385611540565b935061156483858461134b565b82840190509392505050565b600061157d82848661154b565b91508190509392505050565b7f4e487b7100000000000000000000000000000000000000000000000000000000600052602260045260246000fd5b600060028204905060018216806115d057607f821691505b6020821081036115e3576115e2611589565b5b50919050565b7f4f6e6c79206f776e65722063616e2072656e6577000000000000000000000000600082015250565b600061161f60148361106e565b915061162a826115e9565b602082019050919050565b6000602082019050818103600083015261164e81611612565b9050919050565b7f4e616d6520616c72656164792065787069726564000000000000000000000000600082015250565b600061168b60148361106e565b915061169682611655565b602082019050919050565b600060208201905081810360008301526116ba8161167e565b9050919050565b7f4e487b7100000000000000000000000000000000000000000000000000000000600052601160045260246000fd5b60006116fb82610f65565b915061170683610f65565b925082820261171481610f65565b9150828204841483151761172b5761172a6116c1565b5b5092915050565b7f496e73756666696369656e742066656500000000000000000000000000000000600082015250565b600061176860108361106e565b915061177382611732565b602082019050919050565b600060208201905081810360008301526117978161175b565b9050919050565b60006117a982610f65565b91506117b483610f65565b92508282019050808211156117cc576117cb6116c1565b5b92915050565b7f496e76616c6964206e616d650000000000000000000000000000000000000000600082015250565b6000611808600c8361106e565b9150611813826117d2565b602082019050919050565b60006020820190508181036000830152611837816117fb565b9050919050565b7f416c726561647920726567697374657265640000000000000000000000000000600082015250565b600061187460128361106e565b915061187f8261183e565b602082019050919050565b600060208201905081810360008301526118a381611867565b9050919050565b600082905092915050565b60008190508160005260206000209050919050565b60006020601f8301049050919050565b600082821b905092915050565b6000600883026119177fffffffffffffffffffffffffffffffffffffffffffffffffffffffffffffffff826118da565b61192186836118da565b95508019841693508086168417925050509392505050565b6000819050919050565b600061195e61195961195484610f65565b611939565b610f65565b9050919050565b6000819050919050565b61197883611943565b61198c61198482611965565b8484546118e7565b825550505050565b600090565b6119a1611994565b6119ac81848461196f565b505050565b5b818110156119d0576119c5600082611999565b6001810190506119b2565b5050565b601f821115611a15576119e6816118b5565b6119ef846118ca565b810160208510156119fe578190505b611a12611a0a856118ca565b8301826119b1565b50505b505050565b600082821c905092915050565b6000611a3860001984600802611a1a565b1980831691505092915050565b6000611a518383611a27565b9150826002028217905092915050565b611a6b83836118aa565b67ffffffffffffffff811115611a8457611a8361129f565b5b611a8e82546115b8565b611a998282856119d4565b6000601f831160018114611ac85760008415611ab6578287013590505b611ac08582611a45565b865550611b28565b601f198416611ad6866118b5565b60005b82811015611afe57848901358255600182019150602085019450602081019050611ad9565b86831015611b1b5784890135611b17601f891682611a27565b8355505b6001600288020188555050505b50505050505050565b6000611b3d838561106e565b9350611b4a83858461134b565b611b53836110a9565b840190509392505050565b60006080820190508181036000830152611b79818789611b31565b9050611b886020830186611115565b611b956040830185610f6f565b611ba26060830184610f6f565b9695505050505050565b7f4f6e6c79206f776e65722063616e207472616e73666572000000000000000000600082015250565b6000611be260178361106e565b9150611bed82611bac565b602082019050919050565b60006020820190508181036000830152611c1181611bd5565b9050919050565b7f496e76616c6964206e6577206f776e6572000000000000000000000000000000600082015250565b6000611c4e60118361106e565b9150611c5982611c18565b602082019050919050565b60006020820190508181036000830152611c7d81611c41565b9050919050565b600081905092915050565b6000611c9b8385611c84565b9350611ca883858461134b565b82840190509392505050565b6000611cc1828486611c8f565b91508190509392505050565b7f4e487b7100000000000000000000000000000000000000000000000000000000600052603260045260246000fd5b60008190508160005260206000209050919050565b60008154611d1e816115b8565b611d288186611c84565b94506001821660008114611d435760018114611d5857611d8b565b60ff1983168652811515820286019350611d8b565b611d6185611cfc565b60005b83811015611d8357815481890152600182019150602081019050611d64565b838801955050505b50505092915050565b6000611da08284611d11565b915081905092915050565b6000611db682610f65565b9150611dc183610f65565b9250828203905081811115611dd957611dd86116c1565b5b92915050565b600081549050611dee816115b8565b9050919050565b60008190508160005260206000209050919050565b818103611e18575050611ef0565b611e2182611ddf565b67ffffffffffffffff811115611e3a57611e3961129f565b5b611e4482546115b8565b611e4f8282856119d4565b6000601f831160018114611e7e5760008415611e6c578287015490505b611e768582611a45565b865550611ee9565b601f198416611e8c87611df5565b9650611e97866118b5565b60005b82811015611ebf57848901548255600182019150600185019450602081019050611e9a565b86831015611edc5784890154611ed8601f891682611a27565b8355505b6001600288020188555050505b5050505050505b565b7f4e487b7100000000000000000000000000000000000000000000000000000000600052603160045260246000fd5b6000611f2c82610f65565b91507fffffffffffffffffffffffffffffffffffffffffffffffffffffffffffffffff8203611f5e57611f5d6116c1565b5b60018201905091905056fea264697066735822122068b5366794a2b1fc653e592cfb4e5cab023b0ca85a5d635289f6f48e7c5027a664736f6c63430008120033",
  "linkReferences": {},
  "deployedLinkReferences": {}
}